:020000040000FA
:1000000008020020D9000000F30000008F0100006A
:1000100000000000000000000000000000000000E0
:10002000000000000000000000000000F7000000D9
:100030000000000000000000F90000001B020000AA
:10004000E3010000EB010000F3010000FB010000F0
:100050007B010000CD030000ED030000F50300006C
:10006000BB010000C30100000B02000013020000EE
:100070009B010000A3010000B5030000BD030000C8
:10008000C5030000B3010000D5030000DD0300003C
:10009000E5030000D30100000D040000030200008E
:1000A0006B010000DB010000FD03000005040000FF
:1000B000CB010000AB0100008301000073010000D0
:1000C0000448854600F038F8004800475D0100000C
:1000D000C046C0460802002009480A4A002100A183
:1000E000814200D902440848026008488047084815
:1000F0000047FEE7FEE7FEE7FEE7FEE7FEE700005B
:10010000000000200000000008ED00E07103000086
:10011000C100000003460B439B0703D009E008C958
:10012000121F08C0042AFAD203E00B780370401CA7
:10013000491C521EF9D27047064C0125064E05E0B7
:10014000E36807CC2B430C3C98471034B442F7D3F8
:10015000FFF7BAFF680400008804000010B500F043
:1001600007F900F073F9002010BD10B5C046C04675
:1001700010BD10B5C046C04610BD10B5C046C04643
:1001800010BD10B5C046C046C046C04610BD08B53B
:10019000002000900028FDD008BD10B5C046C04624
:1001A00010BD10B5C046C04610BD10B5C046C04613
:1001B00010BD10B5C046C04610BD10B5C046C04603
:1001C00010BD10B5C046C04610BD10B5C046C046F3
:1001D00010BD10B5C046C04610BD10B5C046C046E3
:1001E00010BD10B5C046C04610BD10B5C046C046D3
:1001F00010BD10B5C046C04610BD10B5C046C046C3
:1002000010BD10B5C046C04610BD10B5C046C046B2
:1002100010BD10B5C046C04610BD10B5C046C046A2
:1002200010BD000010B58AB0002414224849684669
:10023000FFF770FF4648001F0068089000200590F7
:1002400006900790434801886A469183418851830C
:1002500081881183C088D0823E48203000883E4982
:10026000908208680006420F3C48130000F0D2F864
:1002700005042A2C383B6800C8686A464005928B02
:10028000400D904201D1049C5AE0C8686A4640057E
:10029000528B400D904201D1039C51E0C8686A46E0
:1002A0004005128B400D904201D1029C48E0C86885
:1002B0006A464005D28A400D904201D1019C3FE040
:1002C000009C3DE004463BE06846808A4A6992050E
:1002D000920D9042684601D1448C31E0048C2FE0AD
:1002E0000124E4032CE0CA6BD243920724D1684670
:1002F000808BCA685205520D904201D104981BE0D0
:100300006846408BCA685205520D904201D103984D
:1003100012E06846008BCA685205520D904201D126
:10032000029809E06846C08ACA685205520D904298
:1003300001D1019800E00098CA6BD205140F444324
:1003400008680AB04005410F2046C84010BD0000B3
:1003500054040000000C1000002000400048E80198
:1003600010B5FFF75FFF0149086010BD00000020D5
:1003700010B50E4840880E4C80056169800D890AD1
:10038000890201436161094820380089E16840051C
:10039000400DC90AC9020143E160FFF7E1FF206A8D
:1003A000216AE20311432162206210BD200C10007B
:1003B0000020004010B5C046C04610BD10B5C04674
:1003C000C04610BD10B5C046C04610BD10B5C046F1
:1003D000C04610BD10B5C046C04610BD10B5C046E1
:1003E000C04610BD10B5C046C04610BD10B5C046D1
:1003F000C04610BD10B5C046C04610BD10B5C046C1
:10040000C04610BD10B5C046C04610BD10B5C046B0
:10041000C04610BD30B47446641E2578641CAB42DF
:1004200000D21D46635D5B00E31830BC184702E054
:1004300008C8121F08C1002AFAD17047704700206F
:1004400001E001C1121F002AFBD17047FEE7000046
:100450000080009600093D0000127A000024F4009C
:100460004086510100366E01880400000000002023
:10047000040000002E0400008C0400000400002092
:0C048000040200003E04000000093D00E2
:04000005000000C136
:00000001FF
