:020000040000FA
:10000000E0020020D9000000F30000000519000004
:1000100000000000000000000000000000000000E0
:10002000000000000000000000000000F7000000D9
:100030000000000000000000F9000000F978000056
:10004000B92E0000C12E0000C92E0000D12E0000E4
:10005000171000000D8000007B90000083900000CE
:100060003125000039250000C9780000D178000052
:10007000151900001D190000F57F0000FD7F00002C
:100080000580000029250000158000001D8000006B
:1000900025800000A92E00000B980000AD7700001D
:1000A000F5070000B12E0000FB9700000398000048
:1000B0004125000021250000AD100000AD0F00001B
:1000C0000448854600F06CFB00480047E707000045
:1000D000C046C046E002002009480A4A002100A1AB
:1000E000814200D902440848026008488047084815
:1000F0000047FEE7FEE7FEE7FEE7FEE7FEE700005B
:10010000000000200000000008ED00E0457F000036
:10011000C100000030B50B4601460020202201241A
:1001200009E00D46D5409D4205D31D469540491B2B
:100130002546954040191546521E002DF1DC30BD74
:1001400070B500242546002801DA01244042002928
:1001500001DA01254942FFF7DDFFAC4200D0404201
:10016000002C00D0494270BD03460B439B0703D0CF
:1001700009E008C9121F08C0042AFAD203E00B786C
:100180000370401C491C521EF9D27047D2B201E0E4
:100190000270401C491EFBD270470022F6E710B5E2
:1001A00013460A4604461946FFF7F0FF204610BDE5
:1001B000F8B502464A40D40F42004B0052085B0893
:1001C0009A4202D20246084611464A0023D0C30D85
:1001D0004A00DDB2120EAD1A202D35DA4902012691
:1001E000490AF6058A19002C00D0524220214F1BE3
:1001F0001146B9402A411018C20D9A4221D0002C54
:1002000017D0012D08DCDA05801AD20F8019D20729
:10021000DBB200F02CFAF8BDDA05801A01234000A9
:100220001B06C01880185A428018CA0F1043490094
:1002300007E04908C2071143DA05801A801940080F
:10024000801800F00CFAF8BD61000122511A001B61
:10025000F7E70122D2075140AAE70122D207504016
:10026000A6E7024670B54A40D30FDB0740002DD009
:100270004A002AD0010E140E000212020919400A87
:10028000520A8418E50104465443000A120A2E0457
:100290005043A4194219200CC543AA18120C012579
:1002A000AD03521C521912047F39240400D0521C91
:1002B000104301D44000491EC2B20C06C0092018E8
:1002C000401C4008802A02D003E0002070BD400896
:1002D0004000002900DA0020184370BD70B50246C6
:1002E0004A40D50F40004A00ED0740085208002858
:1002F00014D0002A12D0C40DD30D41020120C00534
:100300005202490A520AE41A091812187D3491421D
:1003100001D3641C00E04900002C01DA002070BD0C
:100320000023914201D3891A034340084900002861
:10033000F7D100290AD0914202D10121C90705E075
:10034000914201D2012101E00121C943E005C01819
:10035000401900F084F970BDF0B5074608465840D2
:1003600087B0C00F049048000E4659004008490865
:10037000BC1A884105D2384631461E4617460B4600
:1003800002465800400810434DD0300D0390400500
:100390005900400D490D0590401A0290402873DA2B
:1003A00018030121000B09050843019004980092ED
:1003B000002806D01146019A494200209041009140
:1003C0000190029840210A1A0199009800F024F93E
:1003D00005460C466B4607CB00F02EF9C01971415B
:1003E000039A0E0D0023D71756401A467A4016433B
:1003F00044D0049A002A2DD0029A012A039A15DCCF
:100400001205C01A914101263605001C7141D20F18
:10041000059ED2070093019202962A46234600F0D9
:100420006CF907B0F0BD38463146FAE71605234AA5
:100430000F46B218C01AB74101210905001C4F41EF
:1004400000187F41114618187941E20F10436D19C9
:10045000644113E0E2076D0815436408C2071443C2
:10046000039A01261205C01A91413605001C7141FC
:10047000CE07400830434908C01851412A46234658
:1004800000F02EF9CDE7FFE7049801224000C117E4
:10049000121A00238B4104983146C417381AA1411F
:1004A000EEE730B40124E407634030BC54E730B4D5
:1004B0000124E407614030BC4EE700000000E0FF8B
:1004C000C217C10F504010B54018CA07962300212B
:1004D00000F0CDF810BD10B500229623114600F0B3
:1004E000C6F810BDC20F410040020123400ADB05DF
:1004F000D207090EC0187F2901DA0020704796291B
:1005000003DC9623591AC84001E096398840002A36
:10051000F4D040427047410040020122400AD20517
:10052000090E80187F2901DA00207047962903DC24
:100530009622511AC8407047963988407047C20FBA
:10054000D207400040080BD0C10D0723DB01C918BA
:1005500040020905400A1143C20840071143704791
:10056000002001467047000010B5002904DB01247B
:10057000E40740428C412146002B04DB1C4601234A
:10058000DB075242A3418B4200D1824210BD0000E2
:1005900010B5002904DB0124E40740428C412146C8
:1005A000002B04DB1C460123DB075242A341994286
:1005B00000D1904210BD0000CB0FDB07490010B501
:1005C000490802460A4307D00A0D07240903E4013B
:1005D000090B121B002A01DC002010BDC900440FCA
:1005E0000C43C100E018D205801800F038F810BDA7
:1005F0000122D207002800DB101A002900DB511A63
:10060000814270470122D207002800DB101A00291E
:1006100000DB511A8842704710B5202A04DB0146DE
:10062000203A9140002010BD914020239C1A03469F
:10063000E3401943904010BD10B5202A06DBCB17CC
:100640000846203A1041C1170B4306E00B46134100
:10065000D0402024A21A91400843194610BD002919
:1006600004DA401C490001D140084000704770B4D2
:100670000024050C05D11024000402D1002921D04A
:100680001124050E01D100020834050F01D100012B
:10069000241D850F01D18000A41C002801DB40002F
:1006A000641C002908D020252E1B0D46F540A140D2
:1006B00000D001212943084301061B1B000ADB1D52
:1006C00002D5002070BC7047DB051818801800297F
:1006D000F8DA401C4900F5D170BC40084000704772
:1006E00010B5002B08DA0024401C614192185B41D0
:1006F0001A4301D14008400010BDF0B51FB482B0CC
:1007000005460C0003D0084609F09EF802E009F007
:100710009BF820300246009021462846FFF77CFFD8
:10072000049B059A04460F4618431143084314D00E
:10073000184610431BD0009840210A1A1846059904
:1007400000F040F805460E46009A05990498FFF718
:1007500063FF084305D0012004E02046394607B076
:10076000F0BD0020C11705430E432C4337430099C9
:100770000E986305401A7905E40A00220C43FD0A2D
:100780000A3002D500200146E9E701051019694148
:100790000C9C0D9D00196941FFF7A2FFDFE70000E7
:1007A000064C0125064E05E0E36807CC2B430C3CC4
:1007B00098471034B442F7D3FFF786FCD49D00006D
:1007C000F49D000010B5202A04DB0846203AD040F2
:1007D000002110BD0B46D340D0402024A21A9140E6
:1007E0000843194610BD10B507F0ACFB09F060FADC
:1007F000002010BD10B500F073F810BD0EB50A2131
:10080000684609F07BF901211C2007F003FB012158
:10081000102007F0FFFA00F04BF81048006840087D
:100820004000401C0D4908600846006802218843CA
:100830000A490860642009F0C7F900216846017080
:100840000321417081700021C1700121C902C18062
:1008500000F0C0F8684600F015F80EBD0024004016
:10086000014607484068FF22F13290430A01FF2306
:10087000F1331A401043024A5060002070470000D4
:10088000002400400146002901D104207047074898
:1008900080680122920290430A78920201239B020F
:1008A0001A401043014A90600020EFE70024004006
:1008B0000348406840084000401C014948607047B8
:1008C000002400400146002901D10420704703485C
:1008D000006A0005000D08800020F7E78024004032
:1008E00010B504463948006B0007C00F00280CD033
:1008F00037488068002802D03549886880473348E7
:10090000406B08218843314948633048006B4007F9
:10091000C00F00280CD02E48C068002802D02C49F7
:10092000C86880472948406B0421884327494863A9
:100930002648006B8007C00F00280CD024480069AF
:10094000002802D02249086980472048406B0221D4
:1009500088431E4948631D48006BC007C00F00282C
:100960000CD01B484069002802D0194948698047CB
:100970001648406B40084000144948631348006B18
:10098000C006C00F00280CD011484068002802D0D3
:100990000F49486880470D48406B102188430B4938
:1009A00048630A48006B8006C00F00280CD0084836
:1009B0000068002802D00649086880470348406B59
:1009C000202188430149486310BD00008024004075
:1009D000940000200146002901D1042070472048DE
:1009E00040680C2290434A7892000C231A4010432E
:1009F0001B4A5060104640689A0290438A7812035E
:100A00009B021A401043164A506010464068DA10A4
:100A10009043CA785202DB101A401043104A5060CB
:100A200010464068D21490430A79D2020123DB02B7
:100A30001A4010430A4A50601046806812149043CE
:100A4000074A90601046806852149043044A9060B0
:100A50001046806892149043014A90600020BDE7E0
:100A6000002400400348006840084000401C014941
:100A700008607047C02400400348006840084000F8
:100A80000149086070470000C024004030B50346AB
:100A9000002A01D1042030BD002902D001297DD1D6
:100AA00065E0986D400840001478E407E40F2043A7
:100AB0009865986D0224A0435479640002252C4067
:100AC00020439865986D0424A0439479A4000425DC
:100AD0002C4020439865986D0824A0431479E400C5
:100AE00008252C4020439865986D3024A043D47885
:100AF000240130252C4020439865986DC024A043E4
:100B00009478A401C0252C4020439865986DFF245B
:100B10000134A04354782402FF2501352C402043A2
:100B20009865986D03246402A043147A6402032537
:100B30006D022C4020439865986DAC00A043D47999
:100B4000E402AD002C4020439865986E40084000B8
:100B5000547AE407E40F20439866986E0624A04375
:100B6000947A640006252C40204398666FE0986DC7
:100B700001242404A0431478240401252D042C40CE
:100B800020439865986D6C00A043547964046D000F
:100B90002C4020439865986D6C0000E055E0A04320
:100BA0009479A4046D002C4020439865986D6C00E6
:100BB000A0431479E4046D002C4020439865986D9F
:100BC00003242405A043D478240503252D052C40B7
:100BD00020439865986DAC00A0439478A405AD00BF
:100BE0002C4020439865986D01242406A043547836
:100BF000240601252D062C4020439865986D03247A
:100C00006406A043147A640603256D062C40204335
:100C10009865986DAC00A043D479E406AD002C40F3
:100C200020439865986E1024A043547A240110251F
:100C30002C4020439866986E6024A043947A640107
:100C400060252C402043986601E0042023E700BF84
:100C5000002020E710B50246002901D1042010BD74
:100C60000878052801DD0420F9E7106D0E2398436C
:100C70000B785B000E24234018431065106DFF2392
:100C8000013398434B781B02FF240134234018435F
:100C90001065106D702398438B781B0170242340DE
:100CA000184310650020DAE70346002901D11A61D4
:100CB0000DE0012901D15A6109E0022901D19A61AF
:100CC00005E0032901D1DA6101E00420704700202A
:100CD000FCE702465160002070470146086D40085D
:100CE0004000401C0865002070470146086D400820
:100CF000400008650020704701460807000F0911F1
:100D00000907090F0A2251434218D0B270471CB597
:100D10000721684608F0F2FE01211C2007F07AF84E
:100D2000012168464170002141710121C1700021FB
:100D300001710121817000220221104600F078FD2E
:100D40006A460221002000F025FD0221002000F06B
:100D5000DBFC03220221002000F0F2FC0122022130
:100D6000002000F06BF91CBD1CB50721684608F097
:100D7000C5FE01211C2007F04DF801216846817055
:100D800000214170C170012101716A460A210020D1
:100D900000F000FD0A21002000F0C4FC6A460B218F
:100DA000402000F0F7FC0B21402000F04BFD6A468C
:100DB0000F21402000F0EEFC0F21402000F0B2FC9B
:100DC0006A460821002000F0E5FC0821002000F020
:100DD000A9FC1CBD10B508F003FE10BD1CB5072111
:100DE000684608F08BFE01211C2007F013F8012152
:100DF00068464170002141710121C17000210171DB
:100E00000121817000220321104600F011FD6A4685
:100E10000321002000F0BEFC00220421104600F057
:100E200007FD6A460421002000F0B4FC00220521E1
:100E3000104600F0FDFC6A460521002000F0AAFCE7
:100E400000220621104600F0F3FC6A46062100202D
:100E500000F0A0FC0321002000F056FC042100203B
:100E600000F052FC0521002000F04EFC062100207D
:100E700000F04AFC03221146002000F061FC03222E
:100E80000421002000F05CFC03220521002000F07A
:100E900057FC03220621002000F052FC012202210F
:100EA000002000F0CBF81CBD0020034908704870FA
:100EB0008870C87070470000880000201CB50721AA
:100EC000684608F01BFE01211C2006F0A3FF01214B
:100ED00068464170C17000210171012181706A462C
:100EE0000921002000F056FC02220921002000F018
:100EF00027FC01220321002000F0A0F81CBD1CB536
:100F00000721684608F0FAFD01211C2006F082FF47
:100F10000121684641700021C17001210171817079
:100F20006A460D21402000F035FC0D21402000F0E4
:100F3000F9FB6A460E21402000F02CFC0E214020D7
:100F400000F0F0FB0D21402000F0DEFB0E214020E0
:100F500000F0DAFB02220D21402000F0F1FB02221A
:100F60000E21402000F0ECFB01220321104600F08E
:100F700065F81CBD30B5024600201402034D63190C
:100F800001248C40E4435C6130BD0000000C004053
:100F900070B5024600201502034EAB191C692546A8
:100FA000CD40E807C00F70BD000C004010B5C04632
:100FB000C04610BD70B502460B46002400211846FD
:100FC00000BF14E0555C684000240CE0802505401B
:100FD000002D04D0450031267540E8B201E04506F9
:100FE000280E651CECB2082CF0DB4D1CE9B202297E
:100FF000E8DB70BDF8B504460A212046FFF7A0F8EB
:10100000C5B20A212046FFF79BF8CEB2280180190D
:10101000C7B23846F8BD10B5C046C04610BD000086
:1010200010B504220E21044800F008FE00220F2112
:10103000014800F003FE10BD0004004070B50446F6
:101040000E4615462046002805DBC206D20E0121B9
:101050009140144A116000BF3146204608F01AFC46
:10106000012D0ED12046002809DB00BF00BFC206BB
:10107000D20E012191400C4A116000BF00BF00BF99
:101080000FE0204600280ADBC206D20E0121914063
:10109000054A80321160BFF34F8FBFF36F8F00BFDF
:1010A00000BF70BD80E200E000E100E010B5C04686
:1010B000C046C046C04610BDF0B58BB005460E46D2
:1010C000002437480A9001200990202101A8FFF749
:1010D00064F8344F012D0ED0022D0CD0042D0AD00F
:1010E000062D08D0082D06D00C2D04D00420099020
:1010F00009980BB0F0BD00BF2B482A49C8622B48A5
:10110000C86200BF0846006A49158843710201227F
:10111000520211400843234908620846006A8005CC
:10112000C00FB04203D0072009900998E1E70024DE
:1011300007E0A0001E4908586843A10001AA5050CA
:10114000641C082CF5D30C2D01D1FF200290002443
:101150001FE013480A9014E00A98411E0A910028E3
:101160000CD000BF10480F49C8621048C86200BFC9
:10117000A00001A90858A100785002E007200990BA
:10118000B7E7A0003858A10001AA51588842E3D11E
:10119000641C082CDDD3002009900998A9E7000001
:1011A000FFFFFF00000002405A5A0000A5A5000002
:1011B0007C9D00000146012000BF0B4A0B4BDA6208
:1011C0000B4ADA6200BF1A46126A920892008B0735
:1011D0009B0F1A43054B1A621A46126A9207920F26
:1011E0008A4200D1002070475A5A00000000024095
:1011F000A5A5000008B5014600221F4800901F4821
:10120000006A8007800F022801D0062008BD1C4814
:10121000814202D904221046F8E700BF1948174B53
:10122000D8621948D86200BF1846006B0020C0433E
:101230001863000A009006E00098431E00930028FF
:1012400001D10920E2E70D48006AC006C00F00285E
:10125000F2D108600848009006E00098431E009311
:10126000002801D10920D1E70448006AC006C00F58
:101270000028F2D11046C9E7FFFFFF00000002403E
:10128000FFFF00005A5A0000A5A5000010B5014656
:10129000012000BF0B4A0C4BDA620C4ADA6200BF35
:1012A0001A46126A0C239A438B000C2423401A43DB
:1012B000054B1A621A46126A1207920F8A4200D12F
:1012C000002010BD5A5A000000000240A5A50000F1
:1012D00010B5024600201F4B9A4203D8D307DB0FFC
:1012E000002B01D0042010BD00BF1B4B1B4CE36240
:1012F0001B4BE36200BF23461B6B0023DB432363CE
:1013000000BF164B1B6ADB06DB0F002BF9D100BFB9
:10131000114B124CE362124BE36200BF23461B6A7F
:101320009B089B005B1C2362118000BF0B4B1B6A58
:10133000DB06DB0F002BF9D100BF074B074CE36244
:10134000074BE36200BF23461B6B0023236300BFF0
:10135000C9E70000FFFF00005A5A000000000240E9
:10136000A5A5000002461068C840C007C00F70471E
:10137000FFB585B00598012802D002282ED116E0CD
:10138000D4480068807A0490D2480068C07A0390FC
:10139000D0480068067BCF480068407B0290CD486B
:1013A0000068807B0190CB480068C47B16E0C94888
:1013B0000068807C0490C7480068C07C0390C548E2
:1013C0000068067DC3480068407D0290C1480068FF
:1013D000807D0190BF480068C47D00BF00BF00F061
:1013E000D5FABD4841780498814233DABA48C078CA
:1013F0001F21081A8019401EC7B218207843B64929
:1014000009791822511A491E4118029808183C21DE
:101410004843B14949793C22511A411801980818AA
:1014200085B2AD488079A04201DD681E85B23C21BD
:101430002846FEF785FEC1B2069801703C21284679
:10144000FEF77EFE079801700021089801700120C8
:1014500009B0F0BDA04841780498814270D19E48FF
:101460008178039881426DDA9B488078030008F008
:1014700002FA0D3A0816092F0A300B0C310D320E04
:101480003A0000BF00BF00BF00BF00BF00BF9248CE
:10149000C0781F21081A8019401EC7B223E08E4968
:1014A0004878C117890F091889108900411A07D196
:1014B0008948C0781D21081A8019401EC7B206E06D
:1014C0008548C0781C21081A8019401EC7B20AE05E
:1014D00000BF00BF00BF8048C0781E21081A8019D5
:1014E000401EC7B200BF00BF182078437A4909796F
:1014F0001822511A491E4118029808183C214843E5
:10150000754949793C22511A41180198081885B249
:1015100071488079A04201DD681E85B23C212846D1
:10152000FEF70EFEC1B2069801703C212846FEF778
:1015300007FE07980170002108980170012087E7D5
:10154000C5E0FFE7644881780398814286D162480C
:10155000C078B04230DA6048C078301A401EC7B256
:10156000182078435C4909791822511A491E4118FC
:10157000029808183C214843574949793C22511A9E
:1015800041180198081885B253488079A04201DDBE
:10159000681E85B23C212846FEF7D2FDC1B20698EE
:1015A00001703C212846FEF7CBFD07980170002111
:1015B0000898017001204BE74748C078B042C5D178
:1015C000454801790298814226DA43480179029818
:1015D000401A401E3C2148433F4949793C22511A58
:1015E00041180198081885B23B488079A04201DD76
:1015F000681E85B23C212846FEF7A2FDC1B20698BE
:1016000001703C212846FEF79BFD079801700021E0
:101610000898017001201BE72F4801790298814248
:1016200055D12D484079401C019988421CDA2A483E
:1016300041790198401A85B227488079A04201DD9E
:10164000681E85B23C212846FEF77AFDC1B2069895
:1016500001703C212846FEF773FD079801700021B8
:10166000089801700120F3E61B48417901988142F6
:101670000CD10021069801700798017016488079F6
:10168000201AC1B2089801700020E1E61248807962
:10169000A0420DDC0021069801700121079801701D
:1016A0000D488079201AC1B2089801700120CFE658
:1016B000002106980170079801700748817920463B
:1016C0003C30401AC1B2089801700020C0E60020EA
:1016D000BEE60000800000206A00002008B5FFF789
:1016E000C1F91B20FFF7BCF8642008F045FA6846F2
:1016F000FFF7E8F8FFF7C0F95E2168460088FEF7BB
:101700001FFD80B208BD000070B504460D460449B7
:1017100060180022294606F0DFF8002070BD0000A6
:10172000100E024070B504460D46044960180122AF
:10173000294606F0D1F8002070BD0000140D0240CB
:10174000F8B504460E4615460548A9004018071985
:1017500001223146384606F0BFF80020F8BD0000EF
:10176000300D024070B504460D4603496018294605
:10177000FFF7F8FD70BD0000040D024070B504468F
:101780000D46034960182946FFF7ECFD70BD0000C7
:10179000000E024070B504460E46154621496018F9
:1017A0000022314606F098F800201F496118B20067
:1017B00088502A781B49091F6018314606F08CF8BA
:1017C0006A7818490C396018314606F085F8AA780D
:1017D000144910316018314606F07EF8EA78114954
:1017E00014316018314606F077F82A790D4918311E
:1017F0006018314606F070F86A790A49203160189D
:10180000314606F069F8094880680121C903884318
:10181000A979C9030122D203114008430349886012
:10182000002070BD0C0D0240000C0240000F024071
:1018300010B50346024818188C000251002010BD54
:10184000000C024070B504460D46044960180122A0
:10185000294606F041F8002070BD0000100D02403E
:10186000F0B58DB004460D46174600200C900026BA
:10187000302218496846FEF777FC002C07DD601E11
:10188000C117890F09188910491C0C9101E000202B
:101890000C902046E117890F091889108900611AF8
:1018A00003D1022D01DD012600E00026FF206E306D
:1018B00060430C994118681E80006A461058081849
:1018C000C0198619761D07213046FEF739FCC8B2CB
:1018D0000DB0F0BDA49D00000320800770470000FC
:1018E00000B507480068401C05490860FFF7F4FF91
:1018F00003490968884202D800200149086000BDF8
:101900001000002008B50020009000BF00980028BB
:10191000FCD008BD10B5C046C04610BD10B5C046CD
:10192000C04610BD0EB50C21684608F0E7F801214D
:10193000042006F06FFA06F099F90090064801902D
:101940004021684601725521417200218172694629
:10195000024800F009FA0EBDA08601000004004014
:1019600070B504460D46012600222946204608305F
:1019700005F0B2FF0026304670BD014601208A689E
:1019800008239A438A600020704700000EB50020AB
:10199000019002900420009005E001236A460F2187
:1019A0001E4800F033FA68460078042108400028F9
:1019B000F3DC072301AA0021184800F027FA1420BD
:1019C000174908706946887AFFF796F914494870F4
:1019D0006946487AFFF790F9114988706946087A94
:1019E000FFF78AF90E49C87069468879FFF784F9CC
:1019F0000B49087169464879FFF77EF90849487133
:101A000069460879FFF778F9054988716946C87908
:101A1000FFF772F90249C8710EBD000000040040D2
:101A20006A000020FEB504460D4616461F460420F7
:101A3000019005E0012301AA0F21294800F0E6F9F1
:101A400068460079042108400028F3DC002C35D0DA
:101A50000898FFF7CFFA024607210090204800F0CF
:101A6000EDF83846FFF7C6FA0246082100901C48F8
:101A700000F0E4F83046FFF7BDFA02460921009075
:101A8000174800F0DBF82846FFF7B4FA02460A21AF
:101A90000090134800F0D2F8012301AA0E2110484B
:101AA00000F0B4F9684601790120014301916846CC
:101AB00002790E210A4800F0C1F810E0012301AAC2
:101AC0000E21074800F0A2F968460179FE20014086
:101AD0000191684602790E21014800F0AFF8FEBD81
:101AE00000040040F8B504460D4616460420009058
:101AF00005E001236A460F21224800F087F9684675
:101B00000078042108400028F3DC80220D211D48C4
:101B100000F094F83046FFF76DFA07463A460B217D
:101B2000184800F08BF82846FFF764FA07463A4653
:101B30000C21144800F082F8002C11D001236A46D1
:101B40000E21104800F062F9684601780220014336
:101B50000091684602780E210A4800F06FF810E004
:101B600001236A460E21074800F050F968460178C3
:101B7000FD2001400091684602780E21014800F0E6
:101B80005DF8F8BD00040040FEB507460D46164658
:101B90001C460420019005E0012301AA0F212648DC
:101BA00000F034F968460079042108400028F3DC8D
:101BB000002C00D107240A98FFF71CFA02460021E6
:101BC00000901D4800F03AF80998FFF713FA024612
:101BD00001210090184800F031F80898FFF70AFA40
:101BE000024602210090144800F028F82046FFF732
:101BF00001FA0246032100900F4800F01FF830461A
:101C0000FFF7F8F90246042100900B4800F016F89F
:101C10002846FFF7EFF9024605210090064800F03C
:101C20000DF83846FFF7E6F9024606210090024813
:101C300000F004F8FEBD000000040040F7B582B0DB
:101C400007461546012001903E4E002400200090DA
:101C50000421384600F0D9FA3846FFF78EFE0521F8
:101C6000384600F0D2FA67E008E03046761E0028D9
:101C700004D109200190019805B0F0BD384600F06C
:101C800063F80028F1D0384600F068F8009000981A
:101C90004107490F002940D1C010030007F0EBFDB8
:101CA0000C3D073D102411252F3D343D2A3D0521D3
:101CB0003846FFF755FED021384600F0B3FA2DE044
:101CC00000BF002C02D0012C0AD104E03846039951
:101CD00000F0A8FA04E02946384600F0A3FA00BF55
:101CE00000BF601CC4B219E018E00421384600F0BF
:101CF0008CFA13E00421384600F087FA0EE0052143
:101D0000384600F082FA09E00421384600F07DFAF6
:101D10000521384600F079FA00E000BF00BF022C30
:101D200007DD0421384600F070FA3846FFF725FE3B
:101D300003E03846FFF721FE96E700BF0020019040
:101D4000019899E7FFFFFF000146886808221040CC
:101D5000002801D0012070470020FCE70146002048
:101D60004A69D0B270470000F8B505460C46012715
:101D7000244885420CD12448806A10218843224996
:101D800088620846806A102108431F4988620BE078
:101D90001D48806A202188431B4988620846806A62
:101DA00020210843184988620020A860207AA86092
:101DB000606800012168884201D90120F8BD207ABD
:101DC000402814D10120286061682068FEF7A2F93C
:101DD000C008401EC6B2092E03DA0021284600F0D2
:101DE00014FA3146284600F00BFA074608E00020B6
:101DF0002860607A4000A17A08436072607A2861A6
:101E00003846DBE70004004000200040FFB583B007
:101E100016461C46012002904A4F002001900025E2
:101E200000900421039800F0F0F90398FFF7A5FD56
:101E30000521039800F0E9F97DE008E038467F1EAF
:101E4000002804D109200290029807B0F0BD039841
:101E5000FFF77AFF0028F1D00398FFF77FFF01908A
:101E600001984107490F002959D1C010030007F01C
:101E700002FD0C56071E1456195648274D2E3B5688
:101E80000098401CC0B2009005210398FFF768FD40
:101E9000D021039800F0C6F946E00499039800F0B9
:101EA000C1F941E00521039800F0AFF93CE00521BC
:101EB0000398FFF755FDD121039800F0B3F933E003
:101EC000002C03D00221039800F09FF92CE0039826
:101ED00000F020F97055681CC5B2A54203D102215B
:101EE0000398FFF73DFD1FE005210398FFF738FD3C
:101EF0000421039800F089F90521039800F085F981
:101F000012E00521039800F080F90DE00421039808
:101F100000F07BF90521039800F077F904E0052132
:101F2000039800F072F900BF00BF0398FFF725FD8A
:101F3000A54200D100E080E700BF00200290029897
:101F400083E70000FFFFFF00FFB585B00E46174690
:101F50001D46012004905A4803900020029000245E
:101F6000019000900421059800F04FF90598FFF7C3
:101F700004FD0521059800F048F99BE009E003986D
:101F8000411E0391002804D109200490049809B04F
:101F9000F0BD0598FFF7D8FE0028F0D00598FFF7B0
:101FA000DDFE029002984107490F002976D1C0104A
:101FB000030007F060FC0C7307372273277364403B
:101FC000694756730198401CC0B2019001980128DE
:101FD00007DC05210598FFF7C3FC8821059800F070
:101FE00021F90198012807DD05210598FFF7B8FCC4
:101FF0008921059800F016F955E03112059800F096
:1020000011F950E00098401CC0B20090F1B2059860
:1020100000F008F90098012803DD0521059800F07B
:10202000F4F840E005210598FFF79AFC882105980F
:1020300000F0F8F837E0012D03D90221059800F0EF
:10204000E4F830E0059800F065F82146621CD4B24F
:102050007854681EA04203D102210598FFF780FC46
:1020600021E0002C06D0059800F054F82146621CAF
:10207000D4B278540421059800F0C7F813E0052184
:10208000059800F0C2F80EE00421059800F0BDF8B4
:102090000521059800F0B9F805E0FFE7052105984E
:1020A00000F0B3F800BF00BF0598FFF766FCAC4234
:1020B00000D100E062E700BF00200490049866E7CA
:1020C000FFFFFF001CB50721684607F017FD01213F
:1020D0001C2005F09FFE00216846417001214171DE
:1020E000C17000210171012101706A460621402062
:1020F000FFF750FB6A4607214020FFF74BFB012208
:1021000006214020FFF794FB012207214020FFF722
:102110008FFB1CBD01460020CA68D0B2704700008A
:10212000FEB506460D4601200190344F00240020E4
:1021300000900421304600F068F83046FFF71DFC9F
:102140000521304600F061F852E007E038467F1E76
:10215000002803D1092001900198FEBD3046FFF709
:10216000F3FD0028F2D03046FFF7F8FD009000980C
:10217000282816D006DC082809D0182810D02028D6
:1021800027D11BE030281FD0382822D117E00521A5
:102190003046FFF7E5FB8821304600F043F819E0B0
:1021A00000BF022C07DA2046621CD4B2295C3046FC
:1021B00000F038F801E0601CC4B20BE000BF05215C
:1021C000304600F022F805E00421304600F01DF80A
:1021D00000E000BF00BF022C07DD0421304600F004
:1021E00014F83046FFF7C9FB03E03046FFF7C5FBA4
:1021F000ABE700BF002001900198AEE7FFFFFF00B2
:102200000246012051600020704770B504460D461B
:102210000126012229462046083005F05DFB0026F4
:10222000304670BD02460120D1600020704700009A
:10223000FEB500BF00BF00BF00BF5448007E029043
:102240005248407E01905148807E00904F480838A7
:10225000807E3C21484304464C480838C07E04191F
:102260004A480838007F4843054648480838407FB8
:10227000451946480838807F484306464348083891
:10228000C07F8619FFF782FB414800793C21484313
:102290003F4949794718BC4205DA2D204001C01B4F
:1022A000001984B201E0E01B84B2BD4205DA2D20A2
:1022B0004001C01B401985B201E0E81B85B2BE4257
:1022C00005DA2D204001C01B801986B201E0F01B09
:1022D00086B2002C01D100200290002D01D10020F7
:1022E0000190002E01D1002000900298002838D0E3
:1022F0000198002826D00098002819D0AC4201D1BE
:102300000020FEBDB44201D10020FAE7B54201D160
:102310000020F6E7AC4205DAB44201DA0120F0E72A
:102320000320EEE7B54201DA0220EAE70320E8E7FE
:10233000AC4201D10020E4E7AC4201DA0120E0E741
:102340000220DEE70098002809D0B44201D1002025
:10235000D7E7B44201DA0120D3E70320D1E7012017
:10236000CFE7019800280AD00098002805D0B54290
:1023700001DA0220C5E70320C3E70220C1E7009885
:10238000002801D00320BCE70020BAE7B4000020F9
:102390006A000020F1B582B00298012802D002281C
:1023A0002AD114E039480068847A38480068C57A30
:1023B00036480068067B35480068477B334800682C
:1023C000807B019031480068C07B009014E02F486A
:1023D0000068847C2D480068C57C2C480068067D18
:1023E0002A480068477D29480068807D0190274879
:1023F0000068C07D009000BF00BFFFF7C7FA244807
:102400004078A04201DA0020FEBD21484078A04279
:1024100039D11F488078A84201DA0020F4E71C482F
:102420008078A8422FD11A48C078B04201DA002043
:10243000EAE71748C078B04223D115480079B8427E
:1024400001DA0020E0E712480079B84217D11048BD
:1024500041790198814201DA0020D5E70C484179A1
:102460000198814209D10A488079401D009988422B
:1024700001DA0020C8E70120C6E70120C4E70120F7
:10248000C2E70120C0E70120BEE700008000002075
:102490006A0000202148007E002830D01F48407E7E
:1024A00000282CD01D48017B007D814201DA0120EB
:1024B00070471A48017B007D81421ED11748417B3D
:1024C000407D814201DA0120F2E71448417B407DE2
:1024D000814212D11148817B807D814201DA012045
:1024E000E6E70E48817B807D814206D10B48C17BA7
:1024F000C07D814201DA0120DAE70220D8E70748EF
:10250000007E002801D00120D2E70448407E002848
:1025100001D00220CCE70020CAE70000AC00002078
:1025200010B5C046C04610BD10B5C046C04610BD6F
:1025300010B5C046C04610BD10B5C046C04610BD5F
:1025400010B5C046C04610BD074909690422914331
:10255000054A116111460969012282401143024A6C
:10256000116130BF7047000000ED00E070B54B48CE
:102570004B49086008460068047A632C02DD00209D
:102580000968087246480068447A3B2C03DD1E2126
:1025900043480068417242480068047C632C03DDB4
:1025A00001213F48006801743D480068447C3B2C91
:1025B00003DD00213A480068417439480068847E90
:1025C000172C03DD082136480068817634480068FE
:1025D000C47E3B2C03DD002131480068C1763048C1
:1025E0000068047F172C03DD0C212D48006801775B
:1025F0002B480068447F3B2C03DD002128480068FD
:10260000417727480068047C172C03DD16212448F5
:102610000068817722480068447C3B2C03DD002160
:102620001F480068C1771E480068456A1D49284652
:10263000FDF7E8FF04D31C492846FDF7D9FF03D274
:10264000002017490968486215480068856A1749DB
:102650002846FDF7D7FF04D315492846FDF7C8FFE4
:1026600003D200200E49096888620D4800682030B6
:10267000007B082804DD042109480068203001732C
:10268000074800682030407B032804DD002104480F
:10269000006820304173012070BD0000AC000020B4
:1026A0008000002000002543000025C30000C84230
:1026B0000000C8C21CB5082269461F20C00207F0EE
:1026C000BFFA0621684607F0F1F9694689790A02DE
:1026D0006946C9795118884201D0FF201CBD68465F
:1026E0000078A52816D1684640785A2812D1684645
:1026F0004079A5280ED1684600795A280AD1684643
:102700008078012806DC6846C1788078FF22101A9C
:10271000814201D0FF20E1E768468078DEE70000D3
:1027200010B58EB0FFF7C6FF044600200D90012CB7
:102730002EDD342269463F20800207F081FA022212
:102740000DA9504807F07CFA3421684607F0AEF92D
:102750006946898E884217D0342269467D2040021E
:1027600007F06EFA02220DA9474807F069FA3421F2
:10277000684607F09BF96946898E884202D000209E
:102780000EB010BD012400E00024204600F068FADD
:10279000012C01DD0020F3E7002C38D134226946FA
:1027A0003F20800207F04CFA02220DA9354807F0BD
:1027B00047FA3421684607F079F96946898E8842DC
:1027C0001ED0342269467D20400207F039FA0222E9
:1027D0000DA92D4807F034FA3421684607F066F950
:1027E0006946898E884201D00020C9E7012000F0A7
:1027F00037FA342225497D20400207F021FA3EE0D5
:10280000342222493F20800207F01AFA37E03422AE
:1028100069467D20400207F013FA02220DA91A48EA
:1028200007F00EFA3421684607F040F96946898EB0
:1028300088421ED0342269463F20800207F000FA09
:1028400002220DA90F4807F0FBF93421684607F072
:102850002DF96946898E884201D0002090E700203A
:1028600000F0FEF9342209493F20800207F0E8F920
:1028700005E0342205497D20400207F0E1F90120FE
:102880007EE7000034FC000034FA0000AC000020B9
:10289000FEB50026002500270020029001900024AC
:1028A000774878490860FFF73BFF00280FD100F018
:1028B000EDF800F06FF9002802D172490871FEBDF1
:1028C000FFF72EFF002802D16E490871F7E7FFF7E6
:1028D0004DFE01206B490871FFF758F86948006800
:1028E000007E00280AD00120FFF754FD002804D004
:1028F000002164480068017600E001266148006814
:10290000407E00280AD00220FFF744FD002804D0B2
:1029100000215C480068417600E00125002E3FD090
:10292000002D2CD0FFF7B6FD002804D0012803D0DD
:10293000022823D111E021E05148077B407B02901F
:102940004F48807B01904E48C47B0094394601205B
:10295000019B029AFFF766F810E04948077D407D29
:1029600002904748807D01904548C47D00943946D7
:102970000120019B029AFFF755F800BF22E0404872
:10298000077B407B02903E48807B01903C48C47BA3
:10299000009439460120019B029AFFF743F811E0A9
:1029A000002D0FD03648077D407D02903448807D51
:1029B00001903348C47D009439460120019B029A5E
:1029C000FFF730F8FFF734FC002806D001280FD0BD
:1029D000022814D0032820D118E00122114600203B
:1029E000FFF780F800220F212748FFF727F914E0AE
:1029F0002348C27E817E0120FFF774F80DE0204855
:102A0000427F017F0120FFF76DF806E01C48C27F7E
:102A1000817F0120FFF766F800BF00BF19480068FA
:102A20002030407B002805D0164800682030407BCD
:102A3000012804D10A210020FEF704FF03E00A2147
:102A40000020FEF76FFE0F4800682030407B012811
:102A500005D00C4800682030407B032804D10F21AA
:102A60004020FEF7EFFE03E00F214020FEF75AFE64
:102A7000044909682031087B05F0DCFB01201EE7D2
:102A8000AC00002080000020000400403F48404986
:102A9000086014200968087018203D4909684870CA
:102AA0000A203B4909688870172039490968C870AD
:102AB00010203749096808711220354909684871A2
:102AC0001420334909688871032031490968C871A5
:102AD00000202F49096808721E212D4800684172A4
:102AE00002212B48006801740021294800684174C4
:102AF0002748006801762648006841760821244866
:102B000000688176002122480068C17608212048AB
:102B10000068017714211E480068417716211C487F
:102B2000006881771E211A480068C1770021184883
:102B3000006808300176164800680830417614486D
:102B40000068083081760020114909684862104900
:102B50000968886205210E48006820300173002151
:102B60000B480068203041730948006820308173A9
:102B7000074800682030C173FF200230044909680B
:102B8000088603490968488601207047AC00002088
:102B900080000020F0B58FB0FFF78CFD06460024C2
:102BA00000200E9000250327002E01D1012400E013
:102BB000002445E0002C1AD13F20800207F028F8BD
:102BC000342224493F20800207F054F83421214860
:102BD00006F06CFF0E9002220EA91F4807F04AF87B
:102BE000342201A97D20400207F02AF819E07D2057
:102BF000400207F00DF8342216497D20400207F00C
:102C000039F83421134806F051FF0E9002220EA924
:102C1000124807F02FF8342201A97D20400207F066
:102C20000FF8204600F01CF8002807D0342101A836
:102C300006F03CFF6946098F884200D00025012537
:102C4000002D04D13846791E4FB20028B2DA28464A
:102C50000FB0F0BDAC00002034FC000034FA0000DE
:102C600070B50546A5201F4908705A2048700846CF
:102C70008570FF20401BC8705A200871A52048713C
:102C80000621184806F012FF04462046E117090EF7
:102C900009180904090E134A9171E117090E091860
:102CA00009120902611AD1711F20C00206F0B0FF9B
:102CB00008220C491F20C00206F0DCFF0822094947
:102CC0001F20C00206F0BCFF0621064806F0EEFEFB
:102CD0000446FFF7EFFCA84201D0002070BD0120A0
:102CE000FCE700008C00002010B515484078030078
:102CF00006F0C1FD0A06090C0F1215181B1E21242F
:102D000001F058F81AE002F0D3F917E000F07AFC6D
:102D100014E001F0DFF811E003F044F80EE003F0F6
:102D200089FB0BE000F0D8F808E000F07BFD05E03F
:102D300000F0A6FA02E003F0C5FE00BF00BF10BD20
:102D400088000020F1B586B0002400250026002070
:102D500005900490039000270290019006980128A6
:102D600004D002281DD0032851D135E04C48057FFE
:102D7000467F3C206843801903904948807F059036
:102D80004748C07F04903C210598414304980F18A0
:102D900043480830407E029041480830807E0190D0
:102DA00035E03F48857EC67E3C206843801903900D
:102DB0003B48807F05903A48C07F04903C210598AD
:102DC000414304980F1836480830007E029034487A
:102DD0000830807E01901AE03148857EC67E3C2016
:102DE0006843801903902E48007F05902C48407F4F
:102DF00004903C210598414304980F182848083056
:102E0000007E029026480830407E019000BF00BF3F
:102E10000298002839D00198002830D0FEF7B6FD7E
:102E2000204800793C2148431E49497944180398B9
:102E3000A04207DA2D204001011B0398081880B238
:102E4000039003E00398001B80B20390A74205DAC9
:102E50002D204001001BC01987B201E0381B87B24A
:102E60000398B84205DA324629460120FEF73AFEB9
:102E700013E00120049A0599FEF734FE0DE0324676
:102E800029460120FEF72EFE07E00198002804D015
:102E90000120049A0599FEF725FE07B0F0BD000059
:102EA000AC0000206A00002010B5C046C04610BD2E
:102EB00010B5C046C04610BD10B504F095F910BD60
:102EC00010B504F049FB10BD10B5C046C04610BD9A
:102ED00010B5C046C04610BDFEB50A2602960024B5
:102EE000042001900020D7490870D7494870C87065
:102EF000D6490870D6494870C87005E0012301AA78
:102F00000F21D448FEF782FF68460079042108406B
:102F10000028F3DC68460079C007C00F002803D002
:102F2000FFF7B8FA044630E068460079022108400D
:102F300000282AD0FEF72AFDC7480179C748807EBD
:102F4000814207D1C4484179C448C07E814201D141
:102F500003241AE0C0480179C048007F814207D1AC
:102F6000BD484179BD48407F814201D104240CE035
:102F7000B9480179B948807F814206D1B648417984
:102F8000B648C07F814200D105240B214020FEF7C6
:102F900059FC0A2006F0F0FD00259EE02846E90FC6
:102FA000091849104900691A3CD1230006F063FC56
:102FB00006040C151E273039202052231A464521BD
:102FC000009005F077FA2CE0202041232D223121BA
:102FD0000090462005F06EFA23E0202041232D22A8
:102FE00032210090462005F065FA1AE020204123A6
:102FF0002D2231210090184605F05CFA11E02020C6
:1030000041232D2232210090184605F053FA08E0A2
:10301000202041232D2233210090184605F04AFA42
:1030200000BF28E0230006F026FC06040C131A1B40
:103030001C25202052231A464521009005F03AFA1B
:1030400018E0864A517A107A012205F057FC11E007
:10305000824A517C107C012205F050FC0AE000BF3E
:1030600000BFFEF793FC7C4A51791079012205F0EC
:1030700045FC00BF00BF00270CE0012006F094FCD7
:103080003C2006F079FD002006F08EFC3C2006F086
:1030900073FD7F1C042FF0DB142006F06DFD202053
:1030A000034602460146009005F004FA029607E046
:1030B000642006F061FD6A484078062800D005E0EB
:1030C0000298411EC9B202910028F1D100BF6448A4
:1030D0004078062800D003E06D1C5A2D00DA5DE729
:1030E00000BF230006F0C7FB069904417E87909934
:1030F000012003460246014600900020FEF792FCA4
:1031000000220F215348FEF799FD00215348017614
:10311000002054490870FFF7BDF9022824D14F4818
:10312000007D514908704D48407D504908704B481A
:10313000807D4F4908704948C07D4E490870022083
:10314000FFF728F9002803D00021444841760BE01E
:10315000484800780090464803784448027842483E
:1031600001780120FEF75EFC57E00120034602468D
:10317000014600900020FEF755FC00220F21354843
:10318000FEF75CFD00213548417600203A49087081
:10319000FFF780F9012824D13048007B32490870BC
:1031A0002E48407B314908702C48807B304908709C
:1031B0002A48C07B2F4908700120FFF7EBF8002850
:1031C00003D00021254801760BE02A4800780090C2
:1031D0002748037825480278234801780120FEF724
:1031E00021FC1AE000220F211A48FEF727FD0120DA
:1031F000FFF7A8FD11E000220F211648FEF71EFD83
:103200000220FFF79FFD08E000220F211148FEF782
:1032100015FD0320FFF796FD00BF00BF0A2006F052
:10322000ABFC0B214020FEF77DFA14480078002803
:1032300003D009200A49487002E00120084948707B
:10324000FEBD0000380000202B00002039000020C7
:1032500030000020000400406A000020AC00002084
:103260008800002073000020660000206700002016
:103270006800002069000020740000207B0000200E
:10328000F8B50126032425460B214020FEF7DAFA83
:103290000A2006F071FC9FE1D5480078030006F093
:1032A000EAFA080509335D87B3DFEF080120D14949
:1032B00048708BE1D04AD1785078012205F01EFB8E
:1032C000254607E0642006F057FCC948007801282D
:1032D00000D004E02846691ECDB20028F2D100BF1C
:1032E000012005F057FB254607E0642006F044FC6A
:1032F000BF480078012800D004E02846691ECDB2FE
:103300000028F2D100BF61E1BB4AD1785078012298
:1033100005F0F4FA254607E0642006F02DFCB448D9
:103320000078022800D004E02846691ECDB20028AB
:10333000F2D100BF012005F02DFB254607E06420F7
:1033400006F01AFCAA480078022800D004E02846BB
:10335000691ECDB20028F2D100BF37E1A64AD1786C
:103360005078012205F0CAFA254607E0642006F0ED
:1033700003FC9F480078032800D004E02846691E1B
:10338000CDB20028F2D100BF012005F003FB254695
:1033900007E0642006F0F0FB95480078032800D091
:1033A00004E02846691ECDB20028F2D100BF0DE12D
:1033B00091494878012105F0A3FB254607E06420E8
:1033C00006F0DAFB8A480078042800D004E028469A
:1033D000691ECDB20028F2D100BF874AD17850785B
:1033E000012205F08BFA254607E0642006F0C4FBB5
:1033F0007F480078042800D004E02846691ECDB23A
:103400000028F2D100BFE1E07B494878012105F0B6
:1034100077FB254607E0642006F0AEFB7448007891
:10342000052800D004E02846691ECDB20028F2D15C
:1034300000BF714AD1785078012205F05FFA254625
:1034400007E0642006F098FB69480078052800D062
:1034500004E02846691ECDB20028F2D100BFB5E0D5
:10346000654AD1785078002205F048FA254608E0F0
:10347000642006F081FB5E480078062801D005E054
:103480001CE02846691ECDB20028F1D100BF5A4A7F
:10349000D1785078012205F031FA254607E0642002
:1034A00006F06AFB52480078062800D004E028465F
:1034B000691ECDB20028F2D100BF87E04E4AD17814
:1034C0005078012205F01AFA7D20C00006F054FB66
:1034D00049484078182800DB00264748C0783C2837
:1034E00000DB0026002E54D04348417843488176C3
:1034F0004148C1784148C176012108300176012256
:1035000011460020FEF7EEFA00220F213C48FEF79C
:1035100095FBFEF78DFE002806D001280FD002286B
:1035200014D0032820D118E0012211460020FEF714
:10353000D9FA00220F213248FEF780FB14E02F4811
:10354000C27E817E0120FEF7CDFA0DE02B48427F3E
:10355000017F0120FEF7C6FA06E02848C27F817F7E
:103560000120FEF7BFFA00BF00BF002005F012FAED
:10357000FF20F53006F000FB202043231A4655219A
:103580000090532004F096FF7D20000106F0F4FA2D
:1035900012E0002005F0FEF9FF20F53006F0ECFA0D
:1035A000202053234C2241210090462004F082FF2A
:1035B0007D20000106F0E0FA00200D4908700E4958
:1035C0004870C87001200B49487000BF00BF09480F
:1035D0004078082800D000E05EE600BF04F046FF17
:1035E0000A2006F0C9FA0B214020FEF79BF8F8BD2F
:1035F000390000208800002030000020AC000020AE
:1036000000040040F8B50026052425460B21402083
:10361000FEF718F90A2006F0AFFA00207E4908707C
:103620007E48407B8870E0E07B488078002806D0A8
:1036300001280DD0022814D0032824D11AE020201C
:103640005323452252210090104604F033FF23E01B
:1036500020205323642252210090452004F02AFFA9
:103660001AE020205323452252210090642004F0C8
:1036700021FF11E0202053236422522100901046A4
:1036800004F018FF08E02020034652221146009063
:10369000452004F00FFF00BF00BF07E0642006F0E4
:1036A0006BFA5D480078002800D004E02846691EC7
:1036B000CDB20028F2D100BF2546202003460246A5
:1036C0000146009004F0F6FE07E0642006F054FA8C
:1036D00051480078002800D004E02846691ECDB289
:1036E0000028F2D100BF25464B480078002877D04B
:1036F00049480078012806D0022812D003281ED09D
:10370000042868D129E044488078032803D10020A8
:103710004149887004E040488078401C3E498870E8
:103720005AE03D488078002803D103203A49887048
:1037300004E039488078401E374988704CE02020EA
:1037400053234C2241210090462004F0B3FE7D20FB
:10375000000106F011FA01263EE02F4881782F483B
:103760004173202043231A4655210090532004F032
:10377000A1FE7D20000106F0FFF90126284800681F
:103780002030407B002805D0254800682030407B51
:10379000012804D10A210020FEF754F803E00A2191
:1037A0000020FDF7BFFF1E4800682030407B012845
:1037B00005D01B4800682030407B032804D10F212E
:1037C0004020FEF73FF803E00F214020FDF7AAFF5D
:1037D00002E005E0FFE700BF00BF00200E490870CF
:1037E0000D484078022800D0F8BD002E00D11BE71C
:1037F00004F03CFE0A2006F0BFF90A2006F0BCF9EE
:103800000B214020FDF78EFFFFF7C4F9012002498C
:10381000487000BFE8E7000088000020CC000020CE
:1038200080000020F8B50126032425460B21402006
:10383000FEF708F80A2006F09FF997E2FE480078A4
:10384000030006F018F8080509335D87B3DFEF08B9
:103850000120FA49487083E2F94AD1785078012270
:1038600005F04CF8254607E0642006F085F9F2489B
:103870000078012800D004E02846691ECDB2002857
:10388000F2D100BF012005F085F8254607E064204D
:1038900006F072F9E8480078012800D004E02846D4
:1038A000691ECDB20028F2D100BF59E2E44AD178B6
:1038B0005078012205F022F8254607E0642006F042
:1038C0005BF9DD480078022800D004E02846691E34
:1038D000CDB20028F2D100BF012005F05BF82546EB
:1038E00007E0642006F048F9D3480078022800D0A9
:1038F00004E02846691ECDB20028F2D100BF2FE2B5
:10390000CF4AD1785078012204F0F8FF254607E02D
:10391000642006F031F9C8480078032800D004E09C
:103920002846691ECDB20028F2D100BF012005F063
:1039300031F8254607E0642006F01EF9BE480078FD
:10394000032800D004E02846691ECDB20028F2D139
:1039500000BF05E2BA494878012105F0D1F82546B3
:1039600007E0642006F008F9B3480078042800D086
:1039700004E02846691ECDB20028F2D100BFB04A4B
:10398000D1785078012204F0B9FF254607E0642081
:1039900006F0F2F8A8480078042800D004E0284691
:1039A000691ECDB20028F2D100BFD9E1A449487800
:1039B000012105F0A5F8254607E0642006F0DCF8B3
:1039C0009D480078052800D004E02846691ECDB245
:1039D0000028F2D100BF9A4AD1785078012204F031
:1039E0008DFF254607E0642006F0C6F8924800786F
:1039F000052800D004E02846691ECDB20028F2D187
:103A000000BFADE18E4AD1785078002204F076FFF5
:103A1000254608E0642006F0AFF8874800780628BD
:103A200001D005E01CE02846691ECDB20028F1D186
:103A300000BF834AD1785078012204F05FFF254609
:103A400007E0642006F098F87B480078062800D04C
:103A500004E02846691ECDB20028F2D100BF7FE104
:103A6000774AD1785078012204F048FF7D20C000C9
:103A700006F082F872484078002805D07048C07877
:103A80003C281ADB002618E06D484078002814D145
:103A90006B48C078002801D100260EE06848C07845
:103AA0003C280ADB6649C8783C21FCF749FB64499D
:103AB00048700846C0783C38C870002E78D06048FE
:103AC0004078604908725E48C1785E4841720121C1
:103AD0000176FDF75BFF5C4880785C4908705A48C6
:103AE00040795749C97840183C280CDB5448407845
:103AF000401C5349487054484079C97840183C38B4
:103B00005349087006E0504840794D49C97840183B
:103B10004F4908704C48007949494978401818289D
:103B200076DB49490979464A527888181821FCF70A
:103B300007FB4549C97840184649087042488078D3
:103B4000030005F098FE0D57081D09450A460B0CA9
:103B5000470D480E570000BF00BF00BF00BF00BFA9
:103B600000BF3C4800781F2809DD3A4800781F381C
:103B70003849087035480078401C3449087039E0ED
:103B800031494878C117890F091889108900411AED
:103B90000FD1304800781D2819DD2E4800781D38D7
:103BA0002C49087029480078401C284908700EE00C
:103BB000B9E0284800781C2809DD264800781C3820
:103BC0002449087021480078401C2049087011E001
:103BD00000BF00BF00BF1F4800781E2809DD1D4838
:103BE00000781E381B49087018480078401C174997
:103BF000087000BF00BF14490979114A527888182B
:103C00001821FCF79DFAC8B2134908700BE0FFE7D2
:103C10000D48C0780F4908700B4800790849497869
:103C200040180D490870094800780C281DDD074828
:103C300000780C38054911E0380000208800002089
:103C40002B000020AC0000206A000020650000204E
:103C500068000020660000206700002008704948C6
:103C60004078401C4849087003E04648407846497F
:103C700008704448807945490870434801784448B1
:103C80008172444801784248C172434801784048F3
:103C90000173424801783E484173414801783C48ED
:103CA00081733A480078401EC1B23948C173FEF7AB
:103CB000F1FB002804D0012803D002281ED11CE00B
:103CC0001CE0012003460246014600900020FDF75B
:103CD000A9FE00220F213348FDF7B0FF2B480078E2
:103CE000401EC0B200902E4803782C4802782A4823
:103CF00001780120FDF796FE00E000BF00BF002024
:103D000004F048FEFF20F53005F036FF2020432365
:103D10001A4655210090532004F0CCFB7D20000171
:103D200005F02AFF12E0002004F034FEFF20F530F9
:103D300005F022FF202053234C22412100904620F1
:103D400004F0B8FB7D20000105F016FF00201649A5
:103D5000087016494870C87001201549487000BFA6
:103D600000BF13484078072800D000E066E500BF98
:103D700004F07CFB0A2005F0FFFE0B214020FDF73C
:103D8000D1FCF8BD6A00002064000020690000201A
:103D9000AC000020650000206600002067000020C5
:103DA0006800002000040040380000202B000020A4
:103DB0008800002070B51E2425460B214020FDF709
:103DC00041FD0A2005F0D8FE3A48807B00282CD11E
:103DD000FDF7DCFD384800793849087036484079ED
:103DE000374908703348C07B002808D03348007832
:103DF0000C2804DD314800780C3830490870012265
:103E00002F4801782D48007804F078FD07E0642001
:103E100005F0B2FE2B484078002800D070BD28463F
:103E2000691ECDB20028F2D12546274803F02AFDAD
:103E3000002804D1254A2649234803F0BBFC244826
:103E4000006804F06DFB07E0642005F095FE1D4856
:103E50004078002800D0E1E72846691ECDB200284E
:103E6000F2D125461948006804F012FA07E06420F0
:103E700005F082FE13484078002800D0CEE728469F
:103E8000691ECDB20028F2D1254604F0EFFA0A20CF
:103E900005F072FE0A2005F06FFE0B214020FDF7B1
:103EA00041FC08484078002802D1012005494870AB
:103EB00000BFB3E7CC0000206A00002050000020C3
:103EC00051000020880000205300002060000020E6
:103ED0005C00002038B500240B214020FDF7B2FC27
:103EE0000A2005F049FE00207D498870E2E07C4808
:103EF0008078030005F0BFFC0C071019222B343D1D
:103F0000464F58616A73202053234A224321009070
:103F1000542004F0CFFA6BE0202031232D224C21D5
:103F20000090412004F0C6FA62E0202032232D22C6
:103F30004C210090412004F0BDFA59E020203323A9
:103F40002D224C210090412004F0B4FA50E02020B2
:103F50004623482245210090532004F0ABFA47E065
:103F6000202045231A4619460090532004F0A2FA57
:103F70003EE0202050232D22462100904F2004F0C7
:103F800099FA35E0202048232D22462100904F2029
:103F900004F090FA2CE0202043232D2245210090AC
:103FA000532004F087FA23E0202054234522532194
:103FB0000090522004F07EFA1AE0202054232D2293
:103FC00045210090532004F075FA11E0202063236E
:103FD0006F22622100906B2004F06CFA08E0202030
:103FE0000346522211460090452004F063FA00BFB8
:103FF00000BFFF202D3005F0BFFD394800780028B4
:1040000053D037480078012806D0022812D0032860
:104010001ED0042844D11DE0314880780B2803D1FC
:1040200000202F49887004E02D488078401C2C49DE
:10403000887036E02A488078002803D10B20284970
:10404000887004E026488078401E2549887028E062
:10405000012426E02248807800281BD1FDF796FC39
:1040600020480079204908701E4840791F4908708F
:104070001C4880791E49087000201E4908701E499E
:1040800008701E49087001201D4908700920144954
:10409000487004E01249887800F034F8044600E0E3
:1040A00000BF00BF00200E4908700D48407803286B
:1040B00000D038BD002C00D119E704F0D7F90A2050
:1040C00005F05AFD0A2005F057FD0B214020FDF7B1
:1040D00029FBFEF75FFD01200149487000BFE8E7BA
:1040E000880000206A000020750000207600002073
:1040F0007700002078000020790000207A0000205E
:104100007B000020F0B593B006460020119010907F
:1041100000270A900990FE4800680890FD48006852
:10412000079000200490330005F0A5FB0C57070E04
:10413000151C25313E4B50515657F748807E0C9048
:10414000F548C07E0B9048E0F348007F0C90F248A1
:10415000407F0B9041E0F048807F0C90EE48C07F9C
:104160000B903AE0FDF712FCEC4800790C90EB481C
:1041700040790B9031E0FDF709FCE84840780F905A
:10418000E64880780E90E548C0780D9025E0E44838
:1041900003F078FB002804D1DE4ADD49E04803F053
:1041A00009FB00200A9018E0DD4803F06BFB0028B3
:1041B00004D1D84AD649DA4803F0FCFA0020099025
:1041C0000BE0D5482030807B069006E005E0D24821
:1041D0002030C07B059000E000BF00BF04242546CE
:1041E0000020D0490870FCE3002F74D1330005F0A3
:1041F00042FB0CF00708090A346092C3EFEEEDF0C1
:1042000000BF00BF00BF01210B9804F08DFD07E047
:10421000642005F0B1FCC3480078002800D004E019
:104220002846691ECDB20028F2D100BF25460122E2
:104230000B990C9804F062FB07E0642005F09CFCED
:10424000B8480078002800D004E02846691ECDB2A6
:104250000028F2D100BF2546F8E10F9804F022FEB5
:1042600007E0642005F088FCAE480078002800D004
:1042700004E02846691ECDB20028F2D100BF2546D1
:1042800020200346024630210090322004F012F92B
:1042900007E0642005F070FCA2480078002800D0F8
:1042A00004E02846691ECDB20028F2D100BF2546A1
:1042B000CCE197480A990068FBF77AFF08900898C4
:1042C00004F02EF908E0642005F056FC95480078CB
:1042D000002801D005E0BAE12846691ECDB20028C9
:1042E000F1D100BF2546202043230246014600901D
:1042F00004F0E0F807E0642005F03EFC894800780F
:10430000002800D004E02846691ECDB20028F2D172
:1043100000BF25469AE17F4809990068FBF748FFEE
:104320000790079803F0B4FF07E0642005F024FC31
:104330007C480078002800D004E02846691ECDB2F1
:104340000028F2D100BF254620204823024601461E
:10435000009004F0AFF807E0642005F00DFC714810
:104360000078002800D004E02846691ECDB200285D
:10437000F2D100BF254669E10698002807D0202029
:104380004C2343222D21009004F094F806E02020D5
:10439000532350222D21009004F08CF807E0642074
:1043A00005F0EAFB5F480078002800D004E02846CA
:1043B000691ECDB20028F2D100BF25462020034659
:1043C00002462D21009004F075F80BE07BE040E000
:1043D00010E032E1642005F0CFFB5248007800285D
:1043E00000D004E02846691ECDB20028F2D100BFFB
:1043F00025462BE12020542345225321009004F030
:1044000059F807E0642005F0B7FB4648007800281B
:1044100000D004E02846691ECDB20028F2D100BFCA
:1044200025462020034602460146009004F042F84B
:1044300007E0642005F0A0FB3A480078002800D08F
:1044400004E02846691ECDB20028F2D100BF2546FF
:10445000FCE00598002807D02020322331222D21AE
:10446000009004F027F806E02020342332222D218A
:10447000009004F01FF807E0642005F07DFB294858
:104480000078002800D004E02846691ECDB200283C
:10449000F2D100BF25462020034602462D21009080
:1044A00004F008F807E0642005F066FB1D4800787A
:1044B000002800D004E02846691ECDB20028F2D1C1
:1044C00000BF2546C2E0049800287DD00B21402083
:1044D000FDF7B8F90A2005F04FFB0498012806D033
:1044E000022838D0032857D0042833D177E00120A0
:1044F0000D490870FF200D4988700B20C8705520A9
:104500000871AA204871062009490870074811E07F
:104510005C00002060000020AC0000206A00002049
:104520005300002088000020350000201E000020DD
:10453000370000200178FE4805F056F9202031238D
:104540002D226F210090622003F0B4FFFF20F53090
:1045500005F012FB64E00120F6490870FF20F649DF
:1045600088701620C87055200871AA20487106204E
:10457000F2490870F0480178ED4805F035F920203F
:1045800032232D226F210090622003F093FFFF2041
:10459000F53005F0F1FA43E00120E6490870FF200C
:1045A000E54988702120C87055200871AA204871FB
:1045B0000620E2490870E0480178DD4805F014F96A
:1045C000202033232D2200E02DE06F210090622077
:1045D00003F070FFFF20F53005F0CEFA20E0012057
:1045E000D4490870FF20D44988702C20C870552009
:1045F0000871AA2048710620D0490870CE48017879
:10460000CB4805F0F1F8202034232D226F210090B3
:10461000622003F04FFFFF20F53005F0ADFA00BF38
:1046200000BF0020049003F021FF0A2005F0A4FA47
:104630000B214020FDF776F808E0202003465222A7
:1046400011460090452003F035FF00BFACE0012F7C
:1046500071D1330005F00FF90B640708090A345FC4
:1046600060616263640000BF00BF00BF01210C985D
:1046700004F046FA07E0642005F07EFAB0480078BE
:10468000002800D004E02846691ECDB20028F2D1EF
:1046900000BF254601220B990C9804F02FF907E082
:1046A000642005F069FAA6480078002800D004E0EC
:1046B0002846691ECDB20028F2D100BF254638E059
:1046C0000E9804F073FB07E0642005F055FA9C484F
:1046D0000078002800D004E02846691ECDB20028EA
:1046E000F2D100BF25462020034602462D2100902E
:1046F00003F0E0FE07E0642005F03EFA9048007801
:10470000002800D004E02846691ECDB20028F2D16E
:1047100000BF25460DE00CE00BE00AE009E008E0F0
:1047200020200346522211460090452003F0C2FE8D
:1047300000BF39E0FFE7022F36D1052E2AD10D98B0
:1047400004F05EF907E0642005F016FA7C48007872
:10475000002800D004E02846691ECDB20028F2D11E
:1047600000BF25462020034602462D21009003F07D
:10477000A1FE07E0642005F0FFF9714800780028E9
:1047800000D004E02846691ECDB20028F2D100BF57
:10479000254608E02020034652221146009045207D
:1047A00003F088FE00BF00BFFF202D3005F0E4F9C4
:1047B00063480078002878D061480078012806D046
:1047C000022873D0032872D0042871D1E4E13300A9
:1047D00005F051F80CF00708090A248FCEE2E7E84B
:1047E000EDF000BF00BF00BF002F0AD10C981728C2
:1047F00002D100200C9010E00C98401CC0B20C902C
:104800000BE0012F09D10B983B2802D100200B901F
:1048100003E00B98401CC0B20B90CBE0002F0AD1F4
:104820000F98632802D100200F9061E00F98401C80
:10483000C0B20F905CE0012F0AD10E980C2802D173
:1048400001200E9054E00E98401CC0B20E904FE034
:10485000022F4DD10E98030005F00DF80D490819EF
:10486000093B0A3C0B0C3D0D3E0E490000BF00BF4A
:1048700000BF00BF00BF00BF0D981F2802D101205C
:104880000D9003E00D98401CC0B20D902FE00F98E2
:10489000C117890F091889108900411A0ED10D9886
:1048A0001D2806D101200D9012E07CE284E065E134
:1048B00071E20D98401CC0B20D9009E00D981C28C3
:1048C00002D101200D9003E00D98401CC0B20D9064
:1048D0000DE000BF00BF00BF0D981E2802D10120CF
:1048E0000D9003E00D98401CC0B20D9000BF00BFBA
:1048F00060E00898FBF723FE0022124B0391029020
:10490000FBF732FE33D210490898FBF77BFE28D222
:104910000E490898FBF76CFE23D20A98FBF70FFEAE
:104920000B4A0C4B01910090FBF716FD039113E02D
:1049300000010040350000201E000020370000204C
:104940008800002000205F40000020C10000C84215
:104950009A9999999999B93F0290FBF72DFE0A907F
:1049600005E07F21C9050A98FBF722FC0A9021E0A7
:10497000FE490798FBF73CFE0DD80998FBF7DFFDD1
:104980000022FB4B01910090FBF7E6FC03910290A3
:10499000FBF712FE09900DE00121069848400690B1
:1049A00008E007E0012105984840059002E0012059
:1049B000049000BF00BFF2E1330004F05CFF0CDDA7
:1049C0000708090A258CB6CFD4D5DADD00BF00BFB1
:1049D00000BF002F0BD10C98002803D117200C909A
:1049E00011E0ECE10C98401EC0B20C900BE0012FDE
:1049F00009D10B98002802D13B200B9003E00B98C3
:104A0000401EC0B20B90B7E0002F0AD10F980028CB
:104A100002D163200F905DE00F98401EC0B20F904E
:104A200058E0012F0AD10E98012802D10C200E90D7
:104A300050E00E98401EC0B20E904BE0022F49D1BC
:104A40000E98030004F017FF0D45081909370A38BE
:104A50000B0C390D3A0E450000BF00BF00BF00BF70
:104A600000BF00BF0D98012802D11F200D9003E068
:104A70000D98401EC0B20D902BE00F98C117890F02
:104A8000091889108900411A0AD10D98012802D10C
:104A90001D200D900EE00D98401EC0B20D9009E053
:104AA0000D98012802D11C200D9003E00D98401EA6
:104AB000C0B20D900DE000BF00BF00BF0D980128EF
:104AC00002D11E200D9003E00D98401EC0B20D9043
:104AD00000BF00BF50E00898FBF731FD0022A54B56
:104AE00003910290FBF754FD1ED2A3490898FBF7EF
:104AF00089FD13D29D490898FBF77AFD0ED20A98DA
:104B0000FBF71DFD9D4A9E4B01910090FBF7C9FCF0
:104B100003910290FBF750FD0A9005E07F21C90543
:104B20000A98FBF796FB0A9026E00798FBF707FD2B
:104B300000228F4B03910290FBF72AFD0DD20998BA
:104B4000FBF7FDFC00228A4B01910090FBF7A9FCCA
:104B500003910290FBF730FD09900DE001210698CA
:104B60004840069008E007E001210598484005907C
:104B700002E00220049000BF00BF10E10B2E02D122
:104B80000320049007E0002F02DD781EC7B202E088
:104B900001201090119002E10B2E02D1042004900C
:104BA000F8E0002F40D1330004F065FE0B3D07080C
:104BB000090A0B0C18242D343D0034E033E032E0B8
:104BC00031E030E06F49486A0A99FBF7F1FA6D4924
:104BD0004862002010900120119024E06949886A01
:104BE0000999FBF7E5FA67498862002010900120D7
:104BF000119018E0634920310698887300201090C6
:104C0000012011900FE0FDF741FF002010900120DE
:104C1000119008E05B4920310598C873002010907E
:104C20000120119000BF00BF012F6ED1330004F0AE
:104C300022FE0B30070E151C2A2B2C2D2E2F300098
:104C400050490C9888764F480B99C17625E04D491C
:104C50000C9808774B480B9941771EE049490C980E
:104C6000887748480B99C17717E000220B990C9878
:104C70006B4607C34448C379C27881784078039073
:104C8000FCF782FF09E008E007E006E005E004E049
:104C900003E001201090119000BF00BF032E40DC04
:104CA000304600F09BF8002838D0012011900122F6
:104CB00011460020FCF716FF00220F213348FCF7B5
:104CC000BDFFFDF7B5FA002806D001280FD0022855
:104CD00014D0032821D119E0012211460020FCF74D
:104CE00001FF00220F212948FCF7A8FF15E0254805
:104CF000C27E817E0120FCF7F5FE0EE02148427F56
:104D0000017F0120FCF7EEFE07E010E01D48C27FA6
:104D1000817F0120FCF7E6FE00BF08E0781EC7B2E5
:104D200005E0052E03D00020109001201190022FE5
:104D30001BD1052E16D1FCF729FE0D9A0E990F985E
:104D4000FCF78EFD03901048817940790E4A127964
:104D5000009202910190039B0D9A0E990F98FCF717
:104D600013FF00BF00BF0120119011E00000C842F6
:104D70000000E03F00C043C0000020C19A9999990B
:104D80009999B93FAC0000206A000020000400405F
:104D9000781CC7B203E001201090119000BF00BF43
:104DA00000200D4908700C484078032807D010985F
:104DB000012802D1002013B0F0BD0120FBE71198BB
:104DC000002801D1FFF710FA1098012801D1002026
:104DD000F1E70120EFE7000088000020FEB505465E
:104DE0000020029000262B0004F045FD0711050865
:104DF0000B0E0F101100AC48047E08E0AA48447E58
:104E000005E0A948847E02E001E000E000BF00BFA9
:104E1000042701970020A54908703BE12B0004F00E
:104E20002AFD074405192D4142434400002C08D1B6
:104E300020204F232D2231210090412003F03AFB06
:104E400007E0202043232D2231210090412003F050
:104E500031FB33E0002C08D120204F232D223221BA
:104E60000090412003F026FB07E0202043232D2261
:104E700032210090412003F01DFB1FE0002C08D1DF
:104E800020204F232D2233210090412003F012FBDC
:104E900007E0202043232D2233210090412003F0FE
:104EA00009FB0BE00AE009E008E02020034652225B
:104EB00011460090452003F0FDFA00BF00BF07E057
:104EC000642004F059FE79480078002800D005E0FD
:104ED0000198411EC9B201910028F1D100BF01978C
:104EE0002020034602460146009003F0E3FA07E063
:104EF000642004F041FE6D480078002800D005E0F1
:104F00000198411EC9B201910028F1D100BF01975B
:104F100066480078002872D064480078012806D0DE
:104F2000022807D0032808D0042869D109E001200D
:104F30004440A1E0012044409EE00126012002906F
:104F40009AE02B0004F097FC078B05305D88898A76
:104F50008B00002C21D15448407E00280CD05248B0
:104F60000838817E007F814206D14F480838C17ED3
:104F7000407F814200D101264B48807E00280CD022
:104F800049480838817E807F814206D146480838EA
:104F9000C17EC07F814200D10126002E03D10120B5
:104FA0006040414908765BE0002C21D13E48007EFC
:104FB00000280CD03C480838817E007F814206D111
:104FC00039480838C17E407F814200D101263648E9
:104FD000807E00280CD034480838017F807F8142D1
:104FE00006D131480838417FC07F814200D1012677
:104FF000002E03D1012060402B49487630E03FE08D
:1050000039E0002C21D12848007E00280CD0264809
:105010000838817E807F814206D123480838C17ECE
:10502000C07F814200D101261F48407E00280CD05D
:105030001D480838017F807F814206D11A48083810
:10504000417FC07F814200D10126002E03D1012083
:1050500060401549887603E002E001E000E000BF0F
:1050600000BF012E03D1002010490870FEBD0026AC
:105070000120029000BF00BF00BF00200B49087054
:105080000A484078032805D0012E01D10020EDE721
:105090000120EBE70298002800D1BFE6012E01D1E4
:1050A0000020E3E70120E1E7B400002088000020B1
:1050B0001FB500210391029101910024F8488078E6
:1050C0000B2821D10020F64988700B214020FCF7E5
:1050D000B9FB0A2004F050FD202043232D226F212C
:1050E0000090622003F0E6F97D20C00004F044FD4A
:1050F00003F0BCF90A2004F03FFD0A2004F03CFD57
:105100000B214020FCF70EFBE5480078002870D00A
:105110000B214020FCF796FB0A2004F02DFDE0480F
:105120000078012806D0022875D0032874D00428FE
:1051300073D1E1E1DB48007E00286FD020204F23AF
:105140002D2231210090462003F0B4F90A2407E013
:10515000642004F011FDD2484078012800D004E01A
:105160002046611ECCB20028F2D100BFCD482030CD
:10517000807B002806D00120CB4908700020CB4955
:10518000087004E00020C8490870C849087001ABE5
:1051900002AA03A90120FCF7EBF8002830D0C2488E
:1051A000007800282CD101226846017A007B03F0A8
:1051B000A5FB052407E0642004F0DEFCB848407835
:1051C000012800D004E02046611ECCB20028F2D1B4
:1051D00000BF00226846017A007B03F08FFB0524A4
:1051E00008E0642004F0C8FCAD484078012801D0F4
:1051F00005E09EE12046611ECCB20028F1D15FE0BF
:10520000A948007800285BD101216846007903F0A5
:1052100007FE05240BE054E016E171E122E0642072
:1052200004F0AAFC9E484078012800D004E0204603
:10523000611ECCB20028F2D100BF0021684600797F
:1052400003F0EEFD052407E0642004F095FC94488B
:105250004078012800D004E02046611ECCB200282E
:10526000F2D12DE0202043232D2231210090462031
:1052700003F020F90A2407E0642004F07DFC88484C
:105280004078012800D004E02046611ECCB20028FE
:10529000F2D100BF834A517A107A012203F02EFB2B
:1052A0000A2407E0642004F067FC7D484078012868
:1052B00000D004E02046611ECCB20028F2D100BF2D
:1052C00026E17848407E002873D020204F232D22ED
:1052D00032210090462003F0EDF80A2407E0642014
:1052E00004F04AFC6E484078012800D004E02046D3
:1052F000611ECCB20028F2D100BF6A482030807B0A
:10530000002806D00020684908700120674908700D
:1053100004E00020644908706449087001AB02AAE7
:1053200003A90220FCF724F800282FD05F4800785A
:1053300000282BD101226846017A007B03F0DEFAB7
:10534000052407E0642004F017FC55484078012844
:1053500000D004E02046611ECCB20028F2D100BF8C
:1053600000226846017A007B03F0C8FA052407E0B2
:10537000642004F001FC4A484078012800D004E091
:105380002046611ECCB20028F2D15CE0474800788C
:10539000002858D101216846007903F041FD052419
:1053A00008E0642004F0E8FB3D484078012801D083
:1053B00005E01AE02046611ECCB20028F1D100BF02
:1053C00000216846007903F02BFD052407E06420E6
:1053D00004F0D2FB32484078012800D004E0204697
:1053E000611ECCB20028F2D12DE0202043232D22D3
:1053F00032210090462003F05DF80A2407E0642083
:1054000004F0BAFB26484078012800D004E020468A
:10541000611ECCB20028F2D100BF224A517C107C20
:10542000012203F06BFA0A2407E0642004F0A4FBD5
:105430001B484078012800D004E02046611ECCB211
:105440000028F2D100BF63E017480078002803D19C
:1054500016480078002805D0002013490870134929
:10546000087048E00F482030407B002806D0012813
:105470000DD002281CD003282CD122E02020532359
:10548000452252210090104603F014F822E020201B
:105490005323642252210090452003F00BF819E0B9
:1054A00088000020AC000020730000207400002061
:1054B00020205323452252210090642002F0FAFF5D
:1054C00008E020205323642252210090104602F06D
:1054D000F1FF00BF00BF0F2407E0642004F04CFB85
:1054E000F7484078012800D004E02046611ECCB285
:1054F0000028F2D100BF0BE00020F149487007E01E
:105500000A2004F039FB0B214020FCF70BF900BF07
:1055100000BF02F0ABFF0A2004F02EFB0A2004F0CB
:105520002BFB0B214020FCF7FDF80020E44908701C
:1055300017E2E348C07800287DD1E248807B00284C
:105540007AD0E1480078002861D0E04802F09AF96A
:10555000002804D1DE4ADF49DC4802F02BF9FCF7D1
:10556000BDF81D2850DADC480078401CDA49087084
:10557000FCF70CFAD948007909281FDBD7480079D5
:1055800015281BDCD6480078002817D0D2480078B0
:10559000092813DB0120D34908700A20D2498870FA
:1055A0000120C87055200871AA2048710620CF49F3
:1055B0000870CD480178CE4804F016F9C648007846
:1055C000092821DB0B214020FCF73CF90A2004F0DC
:1055D000D3FA052411E02020522350224F210090BD
:1055E0004C2002F067FF7D20C00004F0C5FA02F0F5
:1055F0003DFF7D20C00004F0BFFA2046611ECCB202
:105600000028E8D1B44908700020AF4908700B2188
:105610004020FCF717F90A2004F0AEFAB5480078EC
:10562000002875D0B4480078002871D101AB02AAD7
:1056300003A9012001E02AE2B6E1FBF799FE002868
:1056400057D001226846017A007B03F057F9052400
:1056500007E0642004F090FA99484078012800D0CF
:1056600004E02046611ECCB20028F2D100BF002227
:105670006846017A007B03F041F9052407E06420C5
:1056800004F07AFA8E484078012800D004E02046E1
:10569000611ECCB20028F2D100BF01226846017A17
:1056A000007B03F02BF9052407E0642004F064FA82
:1056B00083484078012800D004E02046611ECCB227
:1056C0000028F2D100BF00226846017A007B03F077
:1056D00015F9052407E0642004F04EFA7848407874
:1056E000012800D004E02046611ECCB20028F2D18F
:1056F00054E301216846007903F092FB052408E099
:10570000642004F039FA6E484078012801D005E0A1
:1057100048E02046611ECCB20028F1D100BF002134
:105720006846007903F07CFB052407E0642004F060
:1057300023FA63484078012800D004E02046611E27
:10574000CCB20028F2D100BF69460979491EC8B21F
:10575000012103F065FB052407E0642004F00CFA46
:1057600057484078012800D004E02046611ECCB2A2
:105770000028F2D100BF69460979491EC8B200214C
:1057800003F04EFB052407E0642004F0F5F94C48D3
:105790004078012800D004E02046611ECCB20028E9
:1057A000F2D1FBE253480078002872D152480078C9
:1057B00000286ED001AB02AA03A90220FBF7D8FD96
:1057C000002857D001226846017A007B03F096F842
:1057D000052407E0642004F0CFF939484078012817
:1057E00000D004E02046611ECCB20028F2D100BFF8
:1057F00000226846017A007B03F080F8052407E068
:10580000642004F0B9F92E484078012800D004E063
:105810002046611ECCB20028F2D100BF01226846AA
:10582000017A007B03F06AF8052407E0642004F0A5
:10583000A3F923484078012800D004E02046611EE7
:10584000CCB20028F2D100BF00226846017A007B6A
:1058500003F054F8052407E0642004F08DF918489B
:105860004078012800D004E02046611ECCB2002818
:10587000F2D193E201216846007903F0D1FA0524C0
:1058800008E0642004F078F90D484078012801D040
:1058900005E067E02046611ECCB20028F1D100BFD0
:1058A00000216846007903F0BBFA052426E0642055
:1058B00004F062F90248407801281FD023E000007C
:1058C00088000020CC00002044000020530000206D
:1058D000600000205C0000207D0000206A000020A5
:1058E0007C000020350000201E0000203700002032
:1058F0000001004073000020740000202046611E5B
:10590000CCB20028D3D100BF69460979491EC8B27C
:10591000012103F085FA052407E0642004F02CF946
:10592000FE484078012800D004E02046611ECCB239
:105930000028F2D100BF69460979491EC8B200218A
:1059400003F06EFA052407E0642004F015F9F3482B
:105950004078012800D004E02046611ECCB2002827
:10596000F2D11BE2FCF712F8ED480079ED4908701E
:10597000EB484079EC490870EC48C07B002808D01F
:10598000E84800780C2804DDE64800780C38E54942
:1059900008700122E4480178E248007802F0AEFF86
:1059A000642004F0E9F8F9E102F060FD0A2004F057
:1059B000E3F80B214020FBF7B5FE0020FCF7C4FD07
:1059C000DB4800780028CCD0DA4801F05BFF0028E3
:1059D00004D1D94AD949D74801F0ECFEFBF77EFE45
:1059E0001D2850DAD6480078401CD5490870FBF7CE
:1059F000CDFFCB48007909281FDBC948007915285D
:105A00001BDCD0480078002817D0CD480078092842
:105A100013DB0120CC4908700A20CC498870012092
:105A2000C87055200871AA2048710620C84908701E
:105A3000C6480178C74803F0D7FEC1480078092856
:105A400021DB0B214020FBF7FDFE0A2004F094F837
:105A5000052411E02020522350224F2100904C2099
:105A600002F028FD7D20C00004F086F802F0FEFC64
:105A70007D20C00004F080F82046611ECCB20028D2
:105A8000E8D1AF4908700020A949087086E10B21D0
:105A90004020FBF7D7FE0A2004F06EF89F48C0783C
:105AA000030003F0E8FE0EF008090A519899CDE7CB
:105AB000EFEEF0F0EDF06DE16CE19C482038A64986
:105AC0000860084600682030007B082809DA08468C
:105AD00000682030007B401CC1B29F480068203025
